:020000040000FA
:10000000000000EB250000EB2C008FE2000C90E8D4
:1000100000A08AE000B08BE001704AE20B005AE1D8
:100020000000001A1D0000EB0F00BAE818E04FE2D4
:10003000010013E303F0471013FF2FE1E801000074
:10004000F80100000030B0E30040B0E30050B0E33E
:100050000060B0E3102052E27800A128FCFFFF8A84
:10006000822EB0E13000A128003081451EFF2FE133
:1000700001C08FE21CFF2FE11FB500F0C5F8059805
:1000800086460FBC009C02B07047000001C08FE2A2
:100090001CFF2FE130B47546AE4630BC70470000FF
:1000A000310000EB0210A0E1F0FFFFEB1CC09FE568
:1000B0000FC08CE001001CE30DE08F120FE0A001E7
:1000C0001CFF2FE101C08FE21CFF2FE100F07EF842
:1000D000500000007847C04603002DE9EAFFFFEB1F
:1000E0000300BDE8410000EB0C009FE50C109FE50C
:1000F00004209FE508309FE51EFF2FE160000040CF
:1001000060040040600000400010A0E348209FE52C
:10011000141082E50116A0E34123C2E1181082E524
:100120000C0000EA34109FE5101091E50120A0E3D7
:10013000A10F02E0010050E30300001A0116A0E342
:1001400018209FE5101082E5020000EA0010A0E3ED
:1001500008209FE5101082E5F1FFFFEA00C002E0F1
:10016000008002E070477047704700000E50A0E129
:10017000180000EB05E0A0E10050B0E10D10A0E197
:100180000A30A0E10700C0E300D0A0E160D08DE21A
:1001900020402DE9D3FFFFEB2040BDE80060A0E345
:1001A0000070A0E30080A0E300B0A0E30710C1E36B
:1001B00005C0A0E1C009ACE8C009ACE8C009ACE8E2
:1001C000C009ACE801D0A0E11EFF2FE10400C04649
:1001D000C0462000FFF77EFF00009FE51EFF2FE1D5
:1001E0000000004000009FE51EFF2FE104000040DA
:1001F00001C08FE21CFF2FE101491820ABDFFEE7B1
:10020000260002001EFF2FE17847C04610402DE96E
:10021000F3FFFFEB0010A0E3001080E51040BDE805
:100220001EFF2FE13402000000000040E80400003F
:040230004400000086
:0400000500000000F7
:00000001FF
